{
	"contracts/8_Error.sol": {
		"Error": {
			"abi": [
				{
					"inputs": [],
					"name": "RaiseError",
					"type": "error"
				},
				{
					"inputs": [
						{
							"internalType": "uint256",
							"name": "_i",
							"type": "uint256"
						}
					],
					"name": "testAssert",
					"outputs": [],
					"stateMutability": "pure",
					"type": "function"
				},
				{
					"inputs": [
						{
							"internalType": "uint256",
							"name": "_i",
							"type": "uint256"
						}
					],
					"name": "testError",
					"outputs": [],
					"stateMutability": "pure",
					"type": "function"
				},
				{
					"inputs": [
						{
							"internalType": "uint256",
							"name": "_i",
							"type": "uint256"
						}
					],
					"name": "testRequire",
					"outputs": [],
					"stateMutability": "pure",
					"type": "function"
				},
				{
					"inputs": [
						{
							"internalType": "uint256",
							"name": "_i",
							"type": "uint256"
						}
					],
					"name": "testRevert",
					"outputs": [],
					"stateMutability": "pure",
					"type": "function"
				}
			],
			"devdoc": {
				"kind": "dev",
				"methods": {},
				"version": 1
			},
			"evm": {
				"assembly": "    /* \"contracts/8_Error.sol\":57:533  contract Error {... */\n  mstore(0x40, 0x80)\n  callvalue\n  dup1\n  iszero\n  tag_1\n  jumpi\n  0x00\n  dup1\n  revert\ntag_1:\n  pop\n  dataSize(sub_0)\n  dup1\n  dataOffset(sub_0)\n  0x00\n  codecopy\n  0x00\n  return\nstop\n\nsub_0: assembly {\n        /* \"contracts/8_Error.sol\":57:533  contract Error {... */\n      mstore(0x40, 0x80)\n      callvalue\n      dup1\n      iszero\n      tag_1\n      jumpi\n      0x00\n      dup1\n      revert\n    tag_1:\n      pop\n      jumpi(tag_2, lt(calldatasize, 0x04))\n      shr(0xe0, calldataload(0x00))\n      dup1\n      0x149835b9\n      eq\n      tag_3\n      jumpi\n      dup1\n      0x20987767\n      eq\n      tag_4\n      jumpi\n      dup1\n      0x246ce3f9\n      eq\n      tag_5\n      jumpi\n      dup1\n      0xb8bd717f\n      eq\n      tag_6\n      jumpi\n    tag_2:\n      0x00\n      dup1\n      revert\n        /* \"contracts/8_Error.sol\":421:530  function testError(uint _i) public pure{... */\n    tag_3:\n      tag_7\n      0x04\n      dup1\n      calldatasize\n      sub\n      dup2\n      add\n      swap1\n      tag_8\n      swap2\n      swap1\n      tag_9\n      jump\t// in\n    tag_8:\n      tag_10\n      jump\t// in\n    tag_7:\n      stop\n        /* \"contracts/8_Error.sol\":208:315  function testRevert(uint _i) public pure{... */\n    tag_4:\n      tag_11\n      0x04\n      dup1\n      calldatasize\n      sub\n      dup2\n      add\n      swap1\n      tag_12\n      swap2\n      swap1\n      tag_9\n      jump\t// in\n    tag_12:\n      tag_13\n      jump\t// in\n    tag_11:\n      stop\n        /* \"contracts/8_Error.sol\":321:391  function testAssert(uint _i) public pure{... */\n    tag_5:\n      tag_14\n      0x04\n      dup1\n      calldatasize\n      sub\n      dup2\n      add\n      swap1\n      tag_15\n      swap2\n      swap1\n      tag_9\n      jump\t// in\n    tag_15:\n      tag_16\n      jump\t// in\n    tag_14:\n      stop\n        /* \"contracts/8_Error.sol\":120:202  function testRequire(uint _i) public pure{... */\n    tag_6:\n      tag_17\n      0x04\n      dup1\n      calldatasize\n      sub\n      dup2\n      add\n      swap1\n      tag_18\n      swap2\n      swap1\n      tag_9\n      jump\t// in\n    tag_18:\n      tag_19\n      jump\t// in\n    tag_17:\n      stop\n        /* \"contracts/8_Error.sol\":421:530  function testError(uint _i) public pure{... */\n    tag_10:\n        /* \"contracts/8_Error.sol\":477:479  10 */\n      0x0a\n        /* \"contracts/8_Error.sol\":474:476  _i */\n      dup2\n        /* \"contracts/8_Error.sol\":474:479  _i>10 */\n      gt\n        /* \"contracts/8_Error.sol\":470:524  if (_i>10){... */\n      iszero\n      tag_21\n      jumpi\n        /* \"contracts/8_Error.sol\":501:513  RaiseError() */\n      mload(0x40)\n      0xa395be1000000000000000000000000000000000000000000000000000000000\n      dup2\n      mstore\n      0x04\n      add\n      mload(0x40)\n      dup1\n      swap2\n      sub\n      swap1\n      revert\n        /* \"contracts/8_Error.sol\":470:524  if (_i>10){... */\n    tag_21:\n        /* \"contracts/8_Error.sol\":421:530  function testError(uint _i) public pure{... */\n      pop\n      jump\t// out\n        /* \"contracts/8_Error.sol\":208:315  function testRevert(uint _i) public pure{... */\n    tag_13:\n        /* \"contracts/8_Error.sol\":265:267  10 */\n      0x0a\n        /* \"contracts/8_Error.sol\":262:264  _i */\n      dup2\n        /* \"contracts/8_Error.sol\":262:267  _i>10 */\n      gt\n        /* \"contracts/8_Error.sol\":258:309  if (_i>10){... */\n      iszero\n      tag_23\n      jumpi\n        /* \"contracts/8_Error.sol\":282:298  revert(\"i > 10\") */\n      mload(0x40)\n      0x08c379a000000000000000000000000000000000000000000000000000000000\n      dup2\n      mstore\n      0x04\n      add\n      tag_24\n      swap1\n      tag_25\n      jump\t// in\n    tag_24:\n      mload(0x40)\n      dup1\n      swap2\n      sub\n      swap1\n      revert\n        /* \"contracts/8_Error.sol\":258:309  if (_i>10){... */\n    tag_23:\n        /* \"contracts/8_Error.sol\":208:315  function testRevert(uint _i) public pure{... */\n      pop\n      jump\t// out\n        /* \"contracts/8_Error.sol\":321:391  function testAssert(uint _i) public pure{... */\n    tag_16:\n        /* \"contracts/8_Error.sol\":381:383  10 */\n      0x0a\n        /* \"contracts/8_Error.sol\":378:380  _i */\n      dup2\n        /* \"contracts/8_Error.sol\":378:383  _i<10 */\n      lt\n        /* \"contracts/8_Error.sol\":371:384  assert(_i<10) */\n      tag_27\n      jumpi\n      tag_28\n      tag_29\n      jump\t// in\n    tag_28:\n    tag_27:\n        /* \"contracts/8_Error.sol\":321:391  function testAssert(uint _i) public pure{... */\n      pop\n      jump\t// out\n        /* \"contracts/8_Error.sol\":120:202  function testRequire(uint _i) public pure{... */\n    tag_19:\n        /* \"contracts/8_Error.sol\":182:184  10 */\n      0x0a\n        /* \"contracts/8_Error.sol\":179:181  _i */\n      dup2\n        /* \"contracts/8_Error.sol\":179:184  _i<10 */\n      lt\n        /* \"contracts/8_Error.sol\":171:195  require(_i<10, \"i > 10\") */\n      tag_31\n      jumpi\n      mload(0x40)\n      0x08c379a000000000000000000000000000000000000000000000000000000000\n      dup2\n      mstore\n      0x04\n      add\n      tag_32\n      swap1\n      tag_25\n      jump\t// in\n    tag_32:\n      mload(0x40)\n      dup1\n      swap2\n      sub\n      swap1\n      revert\n    tag_31:\n        /* \"contracts/8_Error.sol\":120:202  function testRequire(uint _i) public pure{... */\n      pop\n      jump\t// out\n        /* \"#utility.yul\":88:205   */\n    tag_34:\n        /* \"#utility.yul\":197:198   */\n      0x00\n        /* \"#utility.yul\":194:195   */\n      dup1\n        /* \"#utility.yul\":187:199   */\n      revert\n        /* \"#utility.yul\":334:411   */\n    tag_36:\n        /* \"#utility.yul\":371:378   */\n      0x00\n        /* \"#utility.yul\":400:405   */\n      dup2\n        /* \"#utility.yul\":389:405   */\n      swap1\n      pop\n        /* \"#utility.yul\":334:411   */\n      swap2\n      swap1\n      pop\n      jump\t// out\n        /* \"#utility.yul\":417:539   */\n    tag_37:\n        /* \"#utility.yul\":490:514   */\n      tag_48\n        /* \"#utility.yul\":508:513   */\n      dup2\n        /* \"#utility.yul\":490:514   */\n      tag_36\n      jump\t// in\n    tag_48:\n        /* \"#utility.yul\":483:488   */\n      dup2\n        /* \"#utility.yul\":480:515   */\n      eq\n        /* \"#utility.yul\":470:533   */\n      tag_49\n      jumpi\n        /* \"#utility.yul\":529:530   */\n      0x00\n        /* \"#utility.yul\":526:527   */\n      dup1\n        /* \"#utility.yul\":519:531   */\n      revert\n        /* \"#utility.yul\":470:533   */\n    tag_49:\n        /* \"#utility.yul\":417:539   */\n      pop\n      jump\t// out\n        /* \"#utility.yul\":545:684   */\n    tag_38:\n        /* \"#utility.yul\":591:596   */\n      0x00\n        /* \"#utility.yul\":629:635   */\n      dup2\n        /* \"#utility.yul\":616:636   */\n      calldataload\n        /* \"#utility.yul\":607:636   */\n      swap1\n      pop\n        /* \"#utility.yul\":645:678   */\n      tag_51\n        /* \"#utility.yul\":672:677   */\n      dup2\n        /* \"#utility.yul\":645:678   */\n      tag_37\n      jump\t// in\n    tag_51:\n        /* \"#utility.yul\":545:684   */\n      swap3\n      swap2\n      pop\n      pop\n      jump\t// out\n        /* \"#utility.yul\":690:1019   */\n    tag_9:\n        /* \"#utility.yul\":749:755   */\n      0x00\n        /* \"#utility.yul\":798:800   */\n      0x20\n        /* \"#utility.yul\":786:795   */\n      dup3\n        /* \"#utility.yul\":777:784   */\n      dup5\n        /* \"#utility.yul\":773:796   */\n      sub\n        /* \"#utility.yul\":769:801   */\n      slt\n        /* \"#utility.yul\":766:885   */\n      iszero\n      tag_53\n      jumpi\n        /* \"#utility.yul\":804:883   */\n      tag_54\n      tag_34\n      jump\t// in\n    tag_54:\n        /* \"#utility.yul\":766:885   */\n    tag_53:\n        /* \"#utility.yul\":924:925   */\n      0x00\n        /* \"#utility.yul\":949:1002   */\n      tag_55\n        /* \"#utility.yul\":994:1001   */\n      dup5\n        /* \"#utility.yul\":985:991   */\n      dup3\n        /* \"#utility.yul\":974:983   */\n      dup6\n        /* \"#utility.yul\":970:992   */\n      add\n        /* \"#utility.yul\":949:1002   */\n      tag_38\n      jump\t// in\n    tag_55:\n        /* \"#utility.yul\":939:1002   */\n      swap2\n      pop\n        /* \"#utility.yul\":895:1012   */\n      pop\n        /* \"#utility.yul\":690:1019   */\n      swap3\n      swap2\n      pop\n      pop\n      jump\t// out\n        /* \"#utility.yul\":1025:1194   */\n    tag_39:\n        /* \"#utility.yul\":1109:1120   */\n      0x00\n        /* \"#utility.yul\":1143:1149   */\n      dup3\n        /* \"#utility.yul\":1138:1141   */\n      dup3\n        /* \"#utility.yul\":1131:1150   */\n      mstore\n        /* \"#utility.yul\":1183:1187   */\n      0x20\n        /* \"#utility.yul\":1178:1181   */\n      dup3\n        /* \"#utility.yul\":1174:1188   */\n      add\n        /* \"#utility.yul\":1159:1188   */\n      swap1\n      pop\n        /* \"#utility.yul\":1025:1194   */\n      swap3\n      swap2\n      pop\n      pop\n      jump\t// out\n        /* \"#utility.yul\":1200:1356   */\n    tag_40:\n        /* \"#utility.yul\":1340:1348   */\n      0x69203e2031300000000000000000000000000000000000000000000000000000\n        /* \"#utility.yul\":1336:1337   */\n      0x00\n        /* \"#utility.yul\":1328:1334   */\n      dup3\n        /* \"#utility.yul\":1324:1338   */\n      add\n        /* \"#utility.yul\":1317:1349   */\n      mstore\n        /* \"#utility.yul\":1200:1356   */\n      pop\n      jump\t// out\n        /* \"#utility.yul\":1362:1727   */\n    tag_41:\n        /* \"#utility.yul\":1504:1507   */\n      0x00\n        /* \"#utility.yul\":1525:1591   */\n      tag_59\n        /* \"#utility.yul\":1589:1590   */\n      0x06\n        /* \"#utility.yul\":1584:1587   */\n      dup4\n        /* \"#utility.yul\":1525:1591   */\n      tag_39\n      jump\t// in\n    tag_59:\n        /* \"#utility.yul\":1518:1591   */\n      swap2\n      pop\n        /* \"#utility.yul\":1600:1693   */\n      tag_60\n        /* \"#utility.yul\":1689:1692   */\n      dup3\n        /* \"#utility.yul\":1600:1693   */\n      tag_40\n      jump\t// in\n    tag_60:\n        /* \"#utility.yul\":1718:1720   */\n      0x20\n        /* \"#utility.yul\":1713:1716   */\n      dup3\n        /* \"#utility.yul\":1709:1721   */\n      add\n        /* \"#utility.yul\":1702:1721   */\n      swap1\n      pop\n        /* \"#utility.yul\":1362:1727   */\n      swap2\n      swap1\n      pop\n      jump\t// out\n        /* \"#utility.yul\":1733:2152   */\n    tag_25:\n        /* \"#utility.yul\":1899:1903   */\n      0x00\n        /* \"#utility.yul\":1937:1939   */\n      0x20\n        /* \"#utility.yul\":1926:1935   */\n      dup3\n        /* \"#utility.yul\":1922:1940   */\n      add\n        /* \"#utility.yul\":1914:1940   */\n      swap1\n      pop\n        /* \"#utility.yul\":1986:1995   */\n      dup2\n        /* \"#utility.yul\":1980:1984   */\n      dup2\n        /* \"#utility.yul\":1976:1996   */\n      sub\n        /* \"#utility.yul\":1972:1973   */\n      0x00\n        /* \"#utility.yul\":1961:1970   */\n      dup4\n        /* \"#utility.yul\":1957:1974   */\n      add\n        /* \"#utility.yul\":1950:1997   */\n      mstore\n        /* \"#utility.yul\":2014:2145   */\n      tag_62\n        /* \"#utility.yul\":2140:2144   */\n      dup2\n        /* \"#utility.yul\":2014:2145   */\n      tag_41\n      jump\t// in\n    tag_62:\n        /* \"#utility.yul\":2006:2145   */\n      swap1\n      pop\n        /* \"#utility.yul\":1733:2152   */\n      swap2\n      swap1\n      pop\n      jump\t// out\n        /* \"#utility.yul\":2158:2338   */\n    tag_29:\n        /* \"#utility.yul\":2206:2283   */\n      0x4e487b7100000000000000000000000000000000000000000000000000000000\n        /* \"#utility.yul\":2203:2204   */\n      0x00\n        /* \"#utility.yul\":2196:2284   */\n      mstore\n        /* \"#utility.yul\":2303:2307   */\n      0x01\n        /* \"#utility.yul\":2300:2301   */\n      0x04\n        /* \"#utility.yul\":2293:2308   */\n      mstore\n        /* \"#utility.yul\":2327:2331   */\n      0x24\n        /* \"#utility.yul\":2324:2325   */\n      0x00\n        /* \"#utility.yul\":2317:2332   */\n      revert\n\n    auxdata: 0xa26469706673582212202127738d488f2c3344f49a9d5fff748f40e3e9b0b74055b739391fb77e9937f764736f6c63430008120033\n}\n",
				"bytecode": {
					"linkReferences": {},
					"object": "608060405234801561001057600080fd5b506102ea806100206000396000f3fe608060405234801561001057600080fd5b506004361061004c5760003560e01c8063149835b914610051578063209877671461006d578063246ce3f914610089578063b8bd717f146100a5575b600080fd5b61006b600480360381019061006691906101db565b6100c1565b005b610087600480360381019061008291906101db565b6100ff565b005b6100a3600480360381019061009e91906101db565b610146565b005b6100bf60048036038101906100ba91906101db565b61015a565b005b600a8111156100fc576040517fa395be1000000000000000000000000000000000000000000000000000000000815260040160405180910390fd5b50565b600a811115610143576040517f08c379a000000000000000000000000000000000000000000000000000000000815260040161013a90610265565b60405180910390fd5b50565b600a811061015757610156610285565b5b50565b600a811061019d576040517f08c379a000000000000000000000000000000000000000000000000000000000815260040161019490610265565b60405180910390fd5b50565b600080fd5b6000819050919050565b6101b8816101a5565b81146101c357600080fd5b50565b6000813590506101d5816101af565b92915050565b6000602082840312156101f1576101f06101a0565b5b60006101ff848285016101c6565b91505092915050565b600082825260208201905092915050565b7f69203e2031300000000000000000000000000000000000000000000000000000600082015250565b600061024f600683610208565b915061025a82610219565b602082019050919050565b6000602082019050818103600083015261027e81610242565b9050919050565b7f4e487b7100000000000000000000000000000000000000000000000000000000600052600160045260246000fdfea26469706673582212202127738d488f2c3344f49a9d5fff748f40e3e9b0b74055b739391fb77e9937f764736f6c63430008120033",
					"opcodes": "PUSH1 0x80 PUSH1 0x40 MSTORE CALLVALUE DUP1 ISZERO PUSH2 0x10 JUMPI PUSH1 0x0 DUP1 REVERT JUMPDEST POP PUSH2 0x2EA DUP1 PUSH2 0x20 PUSH1 0x0 CODECOPY PUSH1 0x0 RETURN INVALID PUSH1 0x80 PUSH1 0x40 MSTORE CALLVALUE DUP1 ISZERO PUSH2 0x10 JUMPI PUSH1 0x0 DUP1 REVERT JUMPDEST POP PUSH1 0x4 CALLDATASIZE LT PUSH2 0x4C JUMPI PUSH1 0x0 CALLDATALOAD PUSH1 0xE0 SHR DUP1 PUSH4 0x149835B9 EQ PUSH2 0x51 JUMPI DUP1 PUSH4 0x20987767 EQ PUSH2 0x6D JUMPI DUP1 PUSH4 0x246CE3F9 EQ PUSH2 0x89 JUMPI DUP1 PUSH4 0xB8BD717F EQ PUSH2 0xA5 JUMPI JUMPDEST PUSH1 0x0 DUP1 REVERT JUMPDEST PUSH2 0x6B PUSH1 0x4 DUP1 CALLDATASIZE SUB DUP2 ADD SWAP1 PUSH2 0x66 SWAP2 SWAP1 PUSH2 0x1DB JUMP JUMPDEST PUSH2 0xC1 JUMP JUMPDEST STOP JUMPDEST PUSH2 0x87 PUSH1 0x4 DUP1 CALLDATASIZE SUB DUP2 ADD SWAP1 PUSH2 0x82 SWAP2 SWAP1 PUSH2 0x1DB JUMP JUMPDEST PUSH2 0xFF JUMP JUMPDEST STOP JUMPDEST PUSH2 0xA3 PUSH1 0x4 DUP1 CALLDATASIZE SUB DUP2 ADD SWAP1 PUSH2 0x9E SWAP2 SWAP1 PUSH2 0x1DB JUMP JUMPDEST PUSH2 0x146 JUMP JUMPDEST STOP JUMPDEST PUSH2 0xBF PUSH1 0x4 DUP1 CALLDATASIZE SUB DUP2 ADD SWAP1 PUSH2 0xBA SWAP2 SWAP1 PUSH2 0x1DB JUMP JUMPDEST PUSH2 0x15A JUMP JUMPDEST STOP JUMPDEST PUSH1 0xA DUP2 GT ISZERO PUSH2 0xFC JUMPI PUSH1 0x40 MLOAD PUSH32 0xA395BE1000000000000000000000000000000000000000000000000000000000 DUP2 MSTORE PUSH1 0x4 ADD PUSH1 0x40 MLOAD DUP1 SWAP2 SUB SWAP1 REVERT JUMPDEST POP JUMP JUMPDEST PUSH1 0xA DUP2 GT ISZERO PUSH2 0x143 JUMPI PUSH1 0x40 MLOAD PUSH32 0x8C379A000000000000000000000000000000000000000000000000000000000 DUP2 MSTORE PUSH1 0x4 ADD PUSH2 0x13A SWAP1 PUSH2 0x265 JUMP JUMPDEST PUSH1 0x40 MLOAD DUP1 SWAP2 SUB SWAP1 REVERT JUMPDEST POP JUMP JUMPDEST PUSH1 0xA DUP2 LT PUSH2 0x157 JUMPI PUSH2 0x156 PUSH2 0x285 JUMP JUMPDEST JUMPDEST POP JUMP JUMPDEST PUSH1 0xA DUP2 LT PUSH2 0x19D JUMPI PUSH1 0x40 MLOAD PUSH32 0x8C379A000000000000000000000000000000000000000000000000000000000 DUP2 MSTORE PUSH1 0x4 ADD PUSH2 0x194 SWAP1 PUSH2 0x265 JUMP JUMPDEST PUSH1 0x40 MLOAD DUP1 SWAP2 SUB SWAP1 REVERT JUMPDEST POP JUMP JUMPDEST PUSH1 0x0 DUP1 REVERT JUMPDEST PUSH1 0x0 DUP2 SWAP1 POP SWAP2 SWAP1 POP JUMP JUMPDEST PUSH2 0x1B8 DUP2 PUSH2 0x1A5 JUMP JUMPDEST DUP2 EQ PUSH2 0x1C3 JUMPI PUSH1 0x0 DUP1 REVERT JUMPDEST POP JUMP JUMPDEST PUSH1 0x0 DUP2 CALLDATALOAD SWAP1 POP PUSH2 0x1D5 DUP2 PUSH2 0x1AF JUMP JUMPDEST SWAP3 SWAP2 POP POP JUMP JUMPDEST PUSH1 0x0 PUSH1 0x20 DUP3 DUP5 SUB SLT ISZERO PUSH2 0x1F1 JUMPI PUSH2 0x1F0 PUSH2 0x1A0 JUMP JUMPDEST JUMPDEST PUSH1 0x0 PUSH2 0x1FF DUP5 DUP3 DUP6 ADD PUSH2 0x1C6 JUMP JUMPDEST SWAP2 POP POP SWAP3 SWAP2 POP POP JUMP JUMPDEST PUSH1 0x0 DUP3 DUP3 MSTORE PUSH1 0x20 DUP3 ADD SWAP1 POP SWAP3 SWAP2 POP POP JUMP JUMPDEST PUSH32 0x69203E2031300000000000000000000000000000000000000000000000000000 PUSH1 0x0 DUP3 ADD MSTORE POP JUMP JUMPDEST PUSH1 0x0 PUSH2 0x24F PUSH1 0x6 DUP4 PUSH2 0x208 JUMP JUMPDEST SWAP2 POP PUSH2 0x25A DUP3 PUSH2 0x219 JUMP JUMPDEST PUSH1 0x20 DUP3 ADD SWAP1 POP SWAP2 SWAP1 POP JUMP JUMPDEST PUSH1 0x0 PUSH1 0x20 DUP3 ADD SWAP1 POP DUP2 DUP2 SUB PUSH1 0x0 DUP4 ADD MSTORE PUSH2 0x27E DUP2 PUSH2 0x242 JUMP JUMPDEST SWAP1 POP SWAP2 SWAP1 POP JUMP JUMPDEST PUSH32 0x4E487B7100000000000000000000000000000000000000000000000000000000 PUSH1 0x0 MSTORE PUSH1 0x1 PUSH1 0x4 MSTORE PUSH1 0x24 PUSH1 0x0 REVERT INVALID LOG2 PUSH5 0x6970667358 0x22 SLT KECCAK256 0x21 0x27 PUSH20 0x8D488F2C3344F49A9D5FFF748F40E3E9B0B74055 0xB7 CODECOPY CODECOPY 0x1F 0xB7 PUSH31 0x9937F764736F6C634300081200330000000000000000000000000000000000 "
				},
				"gasEstimates": {
					"creation": {
						"codeDepositCost": "149200",
						"executionCost": "196",
						"totalCost": "149396"
					},
					"external": {
						"testAssert(uint256)": "478",
						"testError(uint256)": "443",
						"testRequire(uint256)": "760",
						"testRevert(uint256)": "719"
					}
				},
				"methodIdentifiers": {
					"testAssert(uint256)": "246ce3f9",
					"testError(uint256)": "149835b9",
					"testRequire(uint256)": "b8bd717f",
					"testRevert(uint256)": "20987767"
				}
			},
			"storageLayout": {
				"storage": [],
				"types": null
			},
			"userdoc": {
				"kind": "user",
				"methods": {},
				"version": 1
			}
		}
	}
}